:1000000030030020CD3C0000AB350000AB350000D4
:10001000AB350000AB350000AB3500000000000040
:10002000000000000000000000000000DB350000C0
:10003000DB35000000000000DB35000081350000EA
:10004000DB350000DB350000DB3500000336000047
:10005000DB350000DB3500002D3600005736000090
:1000600081360000AB360000D536000001370000B5
:100070002D3700005937000085370000B1370000E8
:10008000DD3700000938000031380000DB350000A2
:10009000DB350000DB350000DB3500005B3800009D
:1000A00087380000B3380000DF3800000B3900004B
:1000B000353900005F39000089390000B53900008A
:1000C000E13900000D3A0000393A0000633A0000BF
:1000D0008B3A0000B53A0000DF3A0000093B00000F
:1000E000333B00005F3B0000893B00000000000044
:1000F0000000000000000000000000000000000000
:100100000000000000000000B13B0000D93B0000EF
:10011000013C0000293C0000513C0000793C0000FB
:10012000DB350000DB350000DB350000DB3500008F
:10013000DB350000DB350000DB350000DB3500007F
:10014000DB350000DB350000DB350000A13C0000A2
:1001500076010000FFFF1E2D2D2D204D6563726975
:1001600073702D5374656C6C6172697320436F7288
:1001700065202D2D2D008E01000042000432647593
:100180007000386847F8046D043F38607047A0017C
:1001900000006200053264726F70043740CF704710
:1001A000BE010000440005327377617007CF043F41
:1001B000386047F8046D043F3A600E007047D20182
:1001C0000000620004326E69700007CF043F38609F
:1001D0007047EC010000440005326F766572B86824
:1001E00047F8046D043F3860FE6870471002000055
:1001F000440005327475636B07CF043F386047F8DD
:10020000046D043F3A60043F3960043F3860704732
:100210003202000046000432726F74003868B96818
:100220003A69B86039613A6079687E60FE68F96061
:10023000704754020000460005322D726F74386812
:10024000B9683A6938613960BA60F968FE607E68F9
:100250007960704768020000200003323E7201CFCF
:1002600001B440B440CF7047800200002000033248
:10027000723E47F8046D40BC01BC043F38607047D3
:100280009802000020000332724047F8046D019E7E
:1002900047F8046D009E7047AA0200002000063255
:1002A0007264726F700002B07047C20200004200B8
:1002B0000364322F3868F10776104008084338602D
:1002C0007047D602000062000364322A38680018C2
:1002D000764138607047F0020000420004647368A1
:1002E00072003868F10776084008084338607047A4
:1002F000060300006200046473686C00386800182C
:10030000764138607047180300004200046461625F
:100310007300002E07D470473603000042000764C4
:100320006E656761746538680021C043F64301302B
:100330004E41386070474E030000640002642D0097
:1003400007CF121AB1410E00043F3A6070476403B0
:100350000000640002642B0007CF12184E41043FD6
:100360003A60704776030000610003733E6447F80B
:10037000046DF61770478A030000620003756D2A4A
:100380003868A0FB0606386070479E0300006200D4
:10039000026D2A00386880FB060638607047DC036F
:1003A000000044000375642A07CF56434143761882
:1003B000010C130C59437618010C80B292B25143D0
:1003C000434350430022C91852411204B6180A048C
:1003D000090C80184E41043F386070476E040000DD
:1003E00044000475646D2A0010B5002447F8046DBC
:1003F0007E6847F8046D3E69FFF7C2FF310040CFC9
:10040000300040CF47F8046D3E6847F8046DFE6841
:1004100003B4FFF7B5FF03BC330040CF320040CF39
:1004200047F8046D3E6847F8046D3E690FB4FFF766
:10043000A7FF0FBC9219634140CF89196241634104
:1004400040CF47F8046D7E6847F8046DFE680FB42E
:10045000FFF796FF0FBC9219634140CF89196241A3
:10046000634140CF1E003A607960B86010BD9004CF
:1004700000004300022A2F0000B540B440CFFFF730
:1004800089FF47F8046D40BC00F04CF8043700BD0C
:10049000B20400004300052A2F6D6F6400B540B41C
:1004A00040CFFFF777FF47F8046D40BC00F03AF803
:1004B00000BDD4040000430003752A2F00B540B4EA
:1004C00040CFFFF75DFF47F8046D40BC00F01BF81C
:1004D000043700BDF8040000430006752A2F6D6F35
:1004E000640000B540B440CFFFF74AFF47F8046D01
:1004F00040BC00F008F800BD180500004300067578
:100500006D2F6D6F640000B547F8046D002600F094
:1005100019F840CF043700BD360500004300056DD3
:100520002F6D6F6400B547F8046DF61700F032F8D0
:1005300040CF043700BD8805000044000675642FD5
:100540006D6F640030B4002300227968B86835000C
:100550003C6840264000494152415B41AB4202D8D1
:1005600004D3A24202D3121BAB410130013EF1D1B0
:100570000E0038607B60BA6030BC704730B4002336
:100580007A68B9680020E2E7FE05000044000564CF
:100590002F6D6F6400B5F01719D0FFF7C4FEFFF799
:1005A00005FEF0170CD0FFF7BEFEFFF7FFFDFFF7CB
:1005B000C9FFFFF7FBFDFFF7B6FEFFF7F7FD00BD34
:1005C000FFF7F4FDFFF7BEFFFFF7ADFE00BDFFF73D
:1005D000EDFDF0170ED0FFF7A6FEFFF7E7FDFFF7E2
:1005E000B1FFFFF7A0FEFFF7E1FDFFF79CFEFFF76D
:1005F000DDFD00BDFFF7DAFDFFF7A4FF00BD140627
:100600000000440002642F0000B5FFF7C3FFFFF7AE
:10061000DCFD00BD5C060000440002662A0000B557
:10062000F0170DD0FFF77FFEFFF7C0FDF0170DD0DC
:10063000FFF779FEFFF7D8FE40CF01CF386000BD4D
:10064000FFF7B4FDF017F5D0FFF76DFEFFF7CCFE16
:1006500040CF01CF3860FFF766FE00BDA80600005E
:10066000440002662F0000B5F0170ED0FFF75BFEC6
:10067000FFF79CFDF0170ED0FFF755FEFFF796FD34
:10068000FFF77CFFFFF7A1FD00BDFFF78FFDF0171F
:10069000F4D0FFF748FEFFF789FDFFF76FFFFFF784
:1006A00042FEFFF792FD00BDBC06000020000232B2
:1006B000210006CF3160726040CF7047D006000045
:1006C000200002324000043F70683860366870478E
:1006D000F006000044000364753C07CF8E4204D846
:1006E00001D1904201D8002670470026F64370479A
:1006F0001007000044000364753E07CFB14204D8E0
:1007000001D1824201D8002670470026F643704787
:1007100030070000440002643C0007CF8E4204DC36
:1007200001D1904201DC002670470026F643704755
:1007300050070000440002643E0007CFB14204DCD1
:1007400001D1824201DC002670470026F643704743
:100750006007000062000364303C0437F6177047FE
:100760007407000062000364303D01CF0643013E80
:10077000B64170478E070000440003643C3E07CF3B
:1007800050404E400643013EB641F6437047A6072F
:100790000000440002643D0007CF50404E40064335
:1007A000013EB6417047B807000020000373704057
:1007B00047F8046D3E007047C8070000200003732F
:1007C0007021370040CF7047DA0700002000037225
:1007D000704047F8046D6E467047EA07000020003D
:1007E00003727021B54640CF7047FA0700006100E0
:1007F0000364757047F8046D70470A0800006100D3
:100800000464726F700040CF7047200800006100E0
:10081000043F64757000002E01D047F8046D7047E6
:1008200034080000620004737761700039683E602C
:100830000E007047420800006200036E69700437C2
:100840007047560800006200046F7665720047F832
:10085000046D7E6870476C08000062000474756364
:100860006B0001CF083F7E6038607047820800004F
:10087000630003726F7403CF083F78603E600E0020
:1008800070479A0800006300042D726F740003CF54
:10089000083F7E60396006007047AC080000200009
:1008A000047069636B0057F826607047C408000045
:1008B0000000056465707468BC49C91B47F8046D85
:1008C0008E087047E00800000000067264657074CE
:1008D000680047F8046D6E46B549891B8E0870475D
:1008E000F00800002000023E720040B440CF704784
:1008F00002090000200002723E0047F8046D40BC6F
:1009000070471409000020000272400047F8046D8F
:10091000009E7047240900002000057264726F7009
:1009200001B0704738090000200005727069636BE0
:10093000B6006E44366870474E0900006E000361D1
:100940006E6401CF064070470640000616F0660947
:1009500000006E000362696301CFB0430600704778
:100960008643000636F07C0900006E00026F7200BC
:1009700001CF064370470643000656F09209000077
:100980006E0003786F7201CF464070474640000604
:1009900096F0A00900006100036E6F74F643704783
:1009A000B0090000610003636C7AB6FA86F67047FE
:1009B000BE09000061000373687276087047CC09B5
:1009C000000061000373686C76007047DC0900006A
:1009D000610003726F725FEA76067047EE090000ED
:1009E000610003726F6CB61956F100067047080A71
:1009F00000006C00067273686966740001CFF040F5
:100A00000600704736080026220A00006C000761C5
:100A100072736869667401CF304106007047361002
:100A2000F6173C0A00006C00066C73686966740077
:100A300001CFB04006007047360000264C0A000087
:100A4000610002303D00013EB64170475E0A000081
:100A5000610003303C3E013EB641F64370476C0AEC
:100A60000000610002303C00F6177047820A000067
:100A7000600004747275650047F8046D0026F64343
:100A80007047960A000060000566616C736547F860
:100A9000046D00267047AA0A00004200023E3D0095
:100AA00001CFB042EADA00267047BE0A00004200D9
:100AB000023C3D0001CFB042E0DD00267047D00A85
:100AC00000004200013C01CFB042D7DB0026704756
:100AD000E20A00004200013E01CFB042CEDC002617
:100AE0007047F60A0000620003753E3D01CF861B89
:100AF000B641F64370470A0B0000620003753C3DA7
:100B000001CF361AB641F64370471C0B0000620055
:100B100002753C0001CF861BB64170472E0B0000CA
:100B2000620002753E0001CF361AB6417047440B91
:100B300000006B00023C3E0001CF361A013EB64178
:100B4000F6437047560B00006B00013D01CF361A8B
:100B5000013EB64170476A0B00006200036D696E8A
:100B600001CFB04200DC060070477E0B000062003F
:100B7000036D617801CFB04200DB06007047940B33
:100B80000000620004756D61780001CFB04200D3AF
:100B900006007047B40B0000620004756D696E00BA
:100BA00001CFB04200D8060070470000300200209C
:100BB00030030020F20B00000000046D6F7665002A
:100BC00007B5310040CF320040CF00290FD0B242EC
:100BD0000DD006D3013E013A705C50540139FBD16F
:100BE00005E030781070013601320139F9D140CF7B
:100BF00007BD140C000000000466696C6C00300036
:100C000040CF310040CF002902D001397054FCD1CF
:100C100040CF7047200C000020000140366870472C
:100C2000380C00006D00012103CF30600E007047CA
:100C300006607047016070475E0C00006D00022B7B
:100C4000210003CF3268121832600E00704702682C
:100C500092190260704702685218026070476C0C6B
:100C6000000020000268400036887047860C0000B3
:100C70006D000268210003CF30800E0070470680AF
:100C8000704701807047AC0C00006D0003682B2199
:100C900003CF3288121832800E00704702889219F2
:100CA000028070470288521802807047BA0C000018
:100CB00020000263400036787047D40C00006D00BD
:100CC0000263210003CF30700E007047067070473A
:100CD00001707047FA0C00006D0003632B2103CFF5
:100CE0003278121832700E00704702789219027032
:100CF00070470278521802707047220D00006D0094
:100D000004626973210003CF3268024332600E002F
:100D10007047026832430260704702680A4302600B
:100D200070474A0D00006D0004626963210003CF23
:100D30003268824332600E0070470268B24302603C
:100D4000704702688A4302607047720D00006D00B0
:100D500004786F72210003CF3268424032600E0087
:100D60007047026872400260704702684A40026041
:100D70007047DC0D0000680004626974400001CF18
:100D80003668064018BF4FF0FF3670474FF4D04228
:100D900000B5012B0AD147F8046D002600F086FE4D
:100DA00047F8046D160001F0A5F911E002CF013BF0
:100DB00002F020FB47F8046D3626164301F09AF93D
:100DC00047F8046D0E0047F8046D002600F06EFE33
:100DD00047F8046DB74E00F09DFF00BD040E000003
:100DE0006D0005686269732103CF32880243328047
:100DF0000E007047028832430280704702880A431F
:100E0000028070472C0E00006D0005686269632146
:100E100003CF3288824332800E0070470288B2438B
:100E20000280704702888A4302807047540E000097
:100E30006D000568786F722103CF3288424032809E
:100E40000E007047028872400280704702884A4054
:100E500002807047740E0000680005686269744083
:100E600001CF3688064018BF4FF0FF3670474FF469
:100E700008428DE79C0E00006D00056362697321D6
:100E800003CF3278024332700E007047027832434B
:100E90000270704702780A4302707047C40E000067
:100EA0006D0005636269632103CF3278824332703B
:100EB0000E0070470278B2430270704702788A438E
:100EC00002707047EC0E00006D000563786F7221B0
:100ED00003CF3278424032700E0070470278724081
:100EE0000270704702784A40027070470C0F000091
:100EF000680005636269744001CF3678064018BF08
:100F00004FF0FF3670474FF4F04241E71C0F0000EE
:100F100061000563656C6C2B043670472C0F000074
:100F200061000563656C6C73B6007047C60F000006
:100F300000000768666C61736821300040CF3100A3
:100F400040CF4FF48043984223D34FF480339842EC
:100F50001FD24FF6FF731940994219D010F00102C9
:100F6000002A16D102889A4213D110F10060524A29
:100F7000524B1360524B1360524A0123136001809D
:100F8000514A136813F00103FBD14E4A80231360CA
:100F9000704700F092FB2A57726F6E67206164649D
:100FA00072657373206F72206461746120666F7262
:100FB0002077726974696E6720666C61736820219E
:100FC0000A0002F03EBA1610000000000E666C61C6
:100FD0007368706167656572617365000FB5300095
:100FE00040CF4FF48043984214D3334A334B1360BD
:100FF000334B1360334A02231360344A1060314A82
:1010000042231360304A136813F00103FBD12D4AC9
:10101000802313600FBD9810000000000A65726104
:101020007365666C617368004FF4804072B64FF46C
:1010300080314FF6FF72038893421CD047F8046D4D
:10104000060047F8046D00F038FB104572617365C7
:1010500020626C6F636B20617420200000F0A0FBA5
:1010600000F02BFB0C2066726F6D20466C6173687C
:101070000A00FFF7B3FF02308842DCD100F01DFB0D
:101080001246696E69736865642E205265736574D3
:1010900020210A0002F05FBAD010000000000E65A7
:1010A00072617365666C61736866726F6D003000A3
:1010B00040CFBBE7820D00000420024023016745BA
:1010C000AB89EFCD102002400C20024014200240DA
:1010D000E61000006900012B01CF36187047361862
:1010E0000036000616F1FC1000006900012D01CF4A
:1010F000861B7047361A003E0006B6F10A11000042
:10110000610002312D00013E70471811000061009E
:1011100002312B00013670472611000061000232B7
:101120002D00023E704734110000610002322B0096
:1011300002367047461100006100066E65676174F3
:1011400065007642704758110000610003616273C8
:10115000F0173618464070477611000042000575BA
:101160002F6D6F6401CF3100B0FBF6F67143401A6A
:10117000043F38607047941100004200042F6D6FE7
:10118000640001CF310090FBF6F67143401A043F32
:1011900038607047A81100004200036D6F6400B50D
:1011A000FFF7EFFF40CF00BDB81100006200012F34
:1011B00001CF90FBF6F67047C81100006A00012AC3
:1011C00001CF464370474643D6110000610002320A
:1011D0002A0076007047E4110000610002322F00FF
:1011E00076107047F81100006100046576656E00A6
:1011F0000120304036187047101200008100046250
:101200006173650047F8046D804E70470A00000066
:101210002612000000000662696E617279007B4848
:101220000221016070473C12000000000764656302
:10123000696D616C75480A21016070474E120000AB
:1012400000000368657871481021016070476A12D8
:101250000000810009686F6F6B2D656D697447F838
:10126000046D6B4E7047541300008612000081001D
:1012700008686F6F6B2D6B65790047F8046D654EDC
:1012800070477A130000A412000081000A686F6F93
:101290006B2D656D69743F0047F8046D5E4E7047B5
:1012A000A4130000C0120000810009686F6F6B2D4D
:1012B0006B65793F47F8046D584E7047D0130000B6
:1012C000DE12000081000A686F6F6B2D706175730C
:1012D000650047F8046D524E704706350000F41261
:1012E0000000000004656D6974000FB5484800F007
:1012F00026F80FBD081300000000036B65790FB5D9
:10130000444800F01CF80FBD1A13000000000565EA
:101310006D69743F4048006887462C130000000048
:10132000046B65793F003D48006887464213000022
:10133000000005706175736539480068874600686C
:1013400087466813000000000B73657269616C2D9D
:10135000656D697400B500F025F8002E40CFFAD015
:10136000304A167040CF00BD9013000000000A7391
:10137000657269616C2D6B65790000B500F028F825
:10138000002E40CFFAD047F8046D264A167800BDEB
:10139000BE13000000000C73657269616C2D656DF1
:1013A00069743F0000B5FFF7C7FF47F8046D0026DA
:1013B0001D4801688020014000D0F64300BD3C1468
:1013C000000000000B73657269616C2D6B65793FDD
:1013D00000B5FFF7B1FF47F8046D00261248016819
:1013E0002020014000D0F64300BD104944F23D00EA
:1013F00008600F494FF4966008600E494620086067
:101400000D4942F20C00086070470000FC4F0020BC
:10141000F84F0020F44F0020F04F0020EC4F002048
:10142000E84F002004380140003801401810024005
:1014300004080140083801400C38014060140000E5
:101440000000076365787065637400B5386801B49F
:101450000130386000F00BF801BC067040CF00BDD1
:10146000D61400000000066163636570740000B567
:1014700002CF01390022FFF742FF300040CF7F2822
:1014800009D0202819D2092816D00A281FD00D28E3
:101490001DD00828EFD1002AEDD000F00EF9030886
:1014A0002008002AE7D0885C013A80230340E2D07C
:1014B00040230340F5D0DEE72020B242DBD247F8DC
:1014C000046D0600FFF711FF01328854D3E71600C0
:1014D00000F0A2F800BDE814000040000374696247
:1014E00047F8046D294E7047FE1400008100033E4A
:1014F000696E47F8046D264E704700000000241501
:10150000000082000E63757272656E742D736F75C4
:101510007263650047F8046D1E4E704700000000BE
:101520006800002040150000000009736574736FA7
:1015300075726365174802CF0660416040CF7047FF
:101540005E150000000006736F757263650047F852
:10155000046D104E043F7068386036687047981507
:10156000000000000571756572790FB5084800210B
:101570000160FFF7B5FF47F8046D47F8046DC82612
:10158000FFF775FFFFF7D6FF0FBD000068000020D2
:10159000E44F0020DC4F0020E61500000000076348
:1015A0006F6D706172650FB5310040CF01CF884219
:1015B00002D040CF00260FBD02CF002810D0013846
:1015C0000A5C335C412A02D35B2A38BF2032412BAC
:1015D00002D35B2B38BF20339A42EED000260FBDDA
:1015E0000026F6430FBDFA150000000002637200EA
:1015F00000B500F062F8010A00BD0C160000000002
:1016000002626C0047F8046D202670472016000027
:10161000000005737061636547F8046D202664E679
:10162000401600000000067370616365730000B52A
:10163000002E03DDFFF7F0FF013EFBD140CF00BDE0
:10164000501600005000065B636861725D0005E0A3
:1016500068160000000004636861720000B501F0C4
:101660006AFB40CF367800BD781600005000012894
:1016700047F8046D292606E0921600005000015C30
:1016800047F8046D002600B501F05FFB043740CF3A
:1016900000BDD61600001000022E22009B4800B5A7
:1016A00047F8046D060000F05EFA47F8046D222644
:1016B00001F04BFB00F058FD00BD0AB447F8046D83
:1016C0007646013E33780121013319405B181EEB49
:1016D000030E0ABC39E0FC16000010000263220071
:1016E0008B48DCE747F8046D7646013E33780121EC
:1016F000013319405B181EEB030E704726170000DC
:101700001000027322008348C9E747F8046D76464B
:1017100047F8046D013E36780121731C19405B18AF
:101720001EEB030E70473E170000000005636F7547
:101730006E74013647F8046D013E367870476617BF
:101740000000000005637479706501B530780028E9
:1017500007D0013647F8046D3678FFF7C6FD01382B
:10176000F7D140CF01BD94170000000004747970D8
:101770006500310040CF300040CF00B5002908D0CF
:10178000002247F8046D865CFFF7AFFD01329142FD
:10179000F7D100BDCE1700000000046865782E0068
:1017A00007B5310040CF20200F22043847F8046DE0
:1017B0000E00C6401640092E01D9373600E03036FB
:1017C000FFF793FD0028F0D1FFF726FF07BDDE17D6
:1017D0000000000003682E731FB54F4C0EE0EE179B
:1017E0000000000003752E731FB54C4C06E06C180A
:1017F00000000000022E73001FB5494C4949C91B67
:101800008908494A106803B40A201060FFF755FFA1
:1018100008537461636B3A205B0047F8046D0E0057
:1018200001F06BFCFFF749FF025D200003BC3E4A5C
:10183000106000290AD03D4A106806B447F8046DCC
:101840000600A04706BC043A0139F5D1FFF735FF81
:101850000620544F533A200047F8046D3600A04745
:10186000FFF72BFF04202A3E0A001FBD301900009D
:10187000000005776F72647300B5FFF71EFF010A61
:1018800000F0CFFEFFF719FF0941646472657373BE
:101890003A2047F8046DFFF783FFFFF70EFF064C71
:1018A000696E6B3A200047F8046D3668FFF778FFE1
:1018B000FFF703FF07466C6167733A2047F8046D32
:1018C000B688FFF76DFFFFF7F8FE06436F64653AD1
:1018D0002000B01D00F0E1FE47F8046D0600FFF7A0
:1018E0005FFFFFF7EAFE064E616D653A200047F89C
:1018F000046D0636FFF729FFFFF7DFFE010A00F04F
:10190000A9FE300040CFBDD040CF00BDBA160000C8
:10191000E41600000A170000A1170000EB300000D9
:10192000FB30000030020020FC4F00202C02002081
:10193000941A000000000D3132626974656E636FA5
:1019400064696E670FB5FF2E04D847F8046D5FF029
:10195000FF360FBD16F0FF10B0420ED14FF6FF71EB
:101960000840310C814208D116F0FF0656F480562B
:1019700047F8046D5FF0FF360FBD16F0FF20B04250
:101980000FD14FF6FF710840310C814209D1360A60
:1019900016F0FF0656F4005647F8046D5FF0FF3668
:1019A0000FBDFF2231001140300A1040884210D193
:1019B000300C104088420CD1300E1040884208D1C3
:1019C00016F0FF0656F4405647F8046D5FF0FF36F8
:1019D0000FBD300000210131001850F100007FF0F0
:1019E0007F020240802A05D01F29F4D347F8046DF6
:1019F00000260FBD0829F9D3060036F0800611F045
:101A00000100C001064311F00E00C002064311F0B0
:101A100010008005064347F8046D5FF0FF360FBDE8
:101A200047F8046DDFF848665FF4704110EA010280
:101A3000120116435FF4006110EA0102D20316435B
:101A40005FF4E06110EA010212011643FF2110EA7F
:101A5000010216431E4377E347F8046DDFF814666E
:101A60005FF0704110EA0102120B16435FF0006153
:101A700010EA0102520816435FF0E06110EA010229
:101A8000120B16435FF47F0110EA0102120C164399
:101A90001E4359E3FA1A000000001072656769736B
:101AA0007465726C69746572616C2C000FB53300DB
:101AB00040CF1B02FF2E05D856F400561E4300F0FF
:101AC00019FB0FBDFFF73EFF002E40CF06D0DFF819
:101AD000A80506431E4300F037FB0FBDF643FFF792
:101AE00031FF002E40CF06D0DFF8900506431E439D
:101AF00000F02AFB0FBDF6430BE05A1B000000006C
:101B0000096D6F76776D6F76742C0FB5330040CF0B
:101B10001B02300040CFFFF783FF4FF6FF7110EA42
:101B2000014001D0FFF798FF0FBD0FB5013630001F
:101B300040CF0023FFF774FFFFF78EFF06E00FB5DD
:101B4000013647F8046D0026FFF7B0FF47F8046D33
:101B500044F2807600F0CEFA0FBDC01B00000000FA
:101B60000563616C6C2C0FB5330000F034FE30005F
:101B700040CF1B1A043BDFF808151940002906D096
:101B8000DFF80025914202D0BDE80F40D7E740CFF3
:101B90005B08DFF8F40440F2FF7119400843DB0AE8
:101BA00040F2FF311940090408439B0A13F0010178
:101BB0008906084347F8046D060000F0C5FA0FBD1A
:101BC000F61B00000000086C69746572616C2C00E3
:101BD00008B547F8046D4FF6470600F08BFA47F852
:101BE000046D46F6045600F085FA47F8046D0626A3
:101BF000FFF75CFF08BD1A1C000000000663726559
:101C00006174650000B500F033F841F63740804755
:101C100047F8046DBEF1010600BD621C0000200003
:101C200005646F65733E41F63740804747F8046DA1
:101C3000BEF10106704747F8046DBEF101064FF092
:101C400000521368DFF8441409680220084000D0ED
:101C5000023102311160FFF768FF136000F0B7F93D
:101C600000BDA41C00000000073C6275696C647331
:101C700000B500F061FB00F0AEFD0220064040CF51
:101C800004D047F8046D362600F034FA47F8046DA6
:101C90004BF2005600F02EFA47F8046D0A2600F0C9
:101CA00096FA00BDB01C00005000035B275D03E006
:101CB000C81C00000000012700B501F03CF800F04E
:101CC0002CFD300040CF00BD061D00003000087024
:101CD0006F7374706F6E650000B5FFF7EDFF102134
:101CE00001400DD12021014005D0FFF771FF47F8D9
:101CF000046DE74E04E0FFF76BFF47F8046DE54E17
:101D0000FFF731FF00BD5C1D0000000007696E6C2D
:101D1000696E652C00B54BF200514BF6005244F24F
:101D200070733088884208D0904208D0984206D01C
:101D300047F8046D060000F0DDF90236F1E740CF08
:101D400000BD0EB44BF6005244F2707301880230AD
:101D5000914201D09942F9D10EBC7047721D00002A
:101D60000000047265742C0047F8046D4BF60056B1
:101D7000C0E1801D00003000046578697400F3E75D
:101D8000981D00003000077265637572736547F82F
:101D9000046DBE4E3668E6E6B01D00008100057396
:101DA0007461746547F8046DBB4E70470000000015
:101DB000C21D00000000015DB7480021C943016059
:101DC0007047D21D00001000015BB3480021016084
:101DD0007047FA1D00000000013A00B5AF480760E7
:101DE00000F0AAFA47F8046D4BF2005600F082F9B1
:101DF000A9480021C943016000BD421E0000300017
:101E0000013B00B5A5480168B9420ED0FFF755FC6B
:101E10001520537461636B206E6F742062616C6176
:101E20006E6365642E0A01F00CBB47F8046D4BF637
:101E3000005600F05FF900F0CAF8974800210160F1
:101E400000BD561E00000000076578656375746567
:101E5000300040CF87466E1E0000100009696D6D8E
:101E600065646961746547F8046D1026E2E0841EBC
:101E70000000500006696E6C696E650047F8046DDD
:101E80002026D7E09E1E000010000B636F6D706966
:101E90006C656F6E6C7947F8046D3026CAE0B81E29
:101EA000000050000A302D666F6C6461626C650042
:101EB00047F8046D4026BDE0D21E000050000A31F4
:101EC0002D666F6C6461626C650047F8046D412695
:101ED000B0E0EC1E000050000A322D666F6C6461A9
:101EE000626C650047F8046D4226A3E0061F0000FF
:101EF00050000A332D666F6C6461626C650047F8B0
:101F0000046D432696E0201F000050000A342D6621
:101F10006F6C6461626C650047F8046D442689E06B
:101F20003A1F000050000A352D666F6C6461626CC8
:101F3000650047F8046D45267CE0541F0000500002
:101F40000A362D666F6C6461626C650047F8046D3B
:101F500046266FE06E1F000050000A372D666F6C3A
:101F60006461626C650047F8046D472662E09E1F5D
:101F70000000000008636F6E7374616E740000B53A
:101F800000F0DAF9FFF724FE47F8046D44F27076AA
:101F900000F0B0F8FFF78CFF00F019F800BDC01F8B
:101FA000000000000932636F6E7374616E7400B5D7
:101FB00000F0C2F939683E600E46FFF709FEE1E71E
:101FC00024200000000006736D756467650000B58D
:101FD0004FF0005001684FF0005291421CD202397C
:101FE0000A884FF6FF739A4204D147F8046D002621
:101FF00000F080F800F06CF82948006847F8046D9C
:1020000006002849096804314FF000521368116036
:1020100000F070F8136000BD00F05AF847F8046D46
:10202000002608E0A8200000000008736574666CB4
:102030006167730000B54FF0005001684FF0005227
:10204000914205D2164801683143016040CF00BD7E
:10205000320040CF13480068043001884FF6FF7308
:10206000994201D1110000E01143018000BD000040
:10207000000040F20000C0F200005FF000007FF0BE
:102080000100C0FF0000C0FF00F800F014000020B5
:10209000141D0000661B0000D84F00201000002017
:1020A0002000002004000020C4200000410007613F
:1020B0006C69676E6564012030403618022030403C
:1020C00036187047EA200000000005616C69676EF1
:1020D00000B54FF0005001680220014004D047F8DD
:1020E000046D002600F006F800BD24210000000069
:1020F00002682C000FB5B6B24FF0005001684FF0E7
:102100000052914205D247F8046D0E00FEF715FF0C
:1021100002E0320040CF0A8047F8046D022600F04A
:1021200056F80FBD3E2100000000012C00B547F815
:10213000046DFFF7DFFF360CFFF7DCFF00BD5A210F
:1021400000000000033E3C2C00B547F8046D360C3F
:10215000FFF7D0FFFFF7CEFF00BDC2210000000057
:1021600007737472696E672C07B5FF21314040CF49
:10217000300040CF002905D147F8046D0026FFF755
:10218000B9FF07BD47F8046D067836020E43FFF726
:10219000B1FF0130013902290AD347F8046D4678AE
:1021A000360202781643FFF7A5FF02300239F2E744
:1021B000002900D107BD47F8046D0678FFF79AFFA4
:1021C00007BD22220000000005616C6C6F744FF0A7
:1021D000005001684FF00052914210D2320040CFBF
:1021E00089184FF48032914219D3FFF766FA0B46F3
:1021F0006C6173682066756C6C0A01F022B932005C
:1022000040CF8918424A1268914208D3FFF755FA25
:102210000952616D2066756C6C0A01F012B901609B
:10222000704748220000000009666F72676574728B
:10223000616D00B500F028F84FF00050354901609D
:1022400035483649016000BD7422000000000D636E
:102250006F6D70696C65746F72616D3F47F8046DE6
:1022600000264FF0005000684FF0005188424DD3D7
:10227000F64370479822000000000C636F6D706990
:102280006C65746F72616D004FF0005000684FF024
:102290000051884213D370472823000000000E63CA
:1022A0006F6D70696C65746F666C617368004FF078
:1022B000005000684FF00051884200D27047164825
:1022C000174902680B680A6003604FF00050154917
:1022D00002680B680A6003600D480068834215D3EA
:1022E00000B5FFF7EAF923205661726961626C65F7
:1022F0007320636F6C6C696465207769746820640F
:10230000696374696F6E6172790A00BD704700007D
:1023100024000020300300200400002050010000B1
:102320001C000020180000201E24000000000828C7
:10233000637265617465290000B500F0FCFC002E35
:102340000ED1FFF7BAF91520437265617465206EEE
:1023500065656473206E616D6520210A01F071B8B6
:10236000386847F8046D043F386000F0A5F940CFA5
:10237000002E40CF11D0386847F8046D043F386014
:10238000FFF79BF9095265646566696E6520FFF782
:10239000F0F9FFF792F9022E2000FFF799FE00F006
:1023A0001AFA4FF0005000684FF0005188421ED2D8
:1023B0008F480021016047F8046D0626FFF707FFEC
:1023C000FEF765FAFFF7D0FE8A4801680A684FF009
:1023D000FF339A4208D14FF000521368116047F85A
:1023E000046DFFF7A3FE1360066040CF11E0814843
:1023F00047F8046D0668FFF799FE47F8046D4FF63D
:10240000FF76FFF777FE7B48310040CF0160FFF792
:10241000ABFE4FF0005001687748016000BD3624E4
:1024200000000000087661726961626C650047F81F
:10243000046D012613E04E2400000000093276618D
:10244000726961626C6547F8046D022607E02C250D
:1024500000000000096E7661726961626C6500B50A
:10246000FFF76AFF4FF0005001684FF000529142B1
:1024700034D20F200640B20060480168891A604AD1
:1024800091420BD2FFF719F90F4E6F7420656E6FF2
:102490007567682052414D0A00F0D3BF016047F8CC
:1024A000046D0E00FFF794FB47F8046D44F270765C
:1024B000FFF720FE300040CF0200002805D00E605C
:1024C0000431FFF733FE0138F9D147F8046D802657
:1024D0001643FFF7AFFDFFF77AFD00BD00F07BF973
:1024E0000220064040CF04D147F8046D3626FFF79E
:1024F00001FE47F8046D434EFFF726FE47F8046DD2
:10250000414EFFF721FE47F8046D44F27076FFF765
:10251000F1FD300040CF002803D0FFF707FE01385F
:10252000FBD1FFF7C5FCFFF752FD00BD0C260000F4
:102530000000076275666665723A00B5FFF7FCFE3B
:102540000120304036180220304036184FF000503D
:1025500001684FF00052914228D228480168891B37
:10256000274A91420BD2FFF7A8F80F4E6F742065EF
:102570006E6F7567682052414D0A00F062BF0160BE
:1025800047F8046D0E00FFF723FB47F8046D44F293
:102590007076FFF7AFFDFFF7C9FD47F8046D40F215
:1025A0004016FFF747FDFFF712FD00BD00F013F9DD
:1025B0000220064040CF04D147F8046D3626FFF7CD
:1025C00099FD47F8046D0F4EFFF7BEFD47F8046D07
:1025D0000D4EFFF7B9FD47F8046D44F27076FFF732
:1025E00089FDFFF7F4FDFFF763FCFFF7F0FC00BD8A
:1025F00020000020040000201400002024000020FF
:10260000300300203E60043F02367E463E26000036
:1026100000000F64696374696F6E6172797374612D
:1026200072744FF0005000684FF0005147F8046D8D
:10263000884201D2E94E7047E94E366870477A26E3
:10264000000000000E64696374696F6E6172796ED8
:102650006578740003B531684FF0FF30814207D0D0
:102660008879FF2804D00E0047F8046D002603BDCA
:1026700047F8046D0026F64303BDAC2600000000B9
:102680000A736B6970737472696E67003178013117
:1026900001220A4089187618704706B40178013182
:1026A00001220A408918401806BC704730270000F4
:1026B00000000466696E64003FB500220023350007
:1026C00040CF340040CFFFF7ACFF4FF6FF70B1882A
:1026D000884218D047F8046D0636FFF72AF847F805
:1026E000046D260047F8046D2E00FEF75CFF002EF7
:1026F00040CF08D0B01DFFF7D0FF02000B004FF015
:102700000050824204D2FFF7A5FF300040CFDCD05A
:10271000160047F8046D1E003FBD00B53100386853
:10272000FFF7CAFF3A68002A01D100F05BFD00BD47
:1027300090270000000006636A756D702C0032005F
:1027400040CF310040CF8B1B043B6FF0FE0119409E
:1027500000290ED06FF0FF0081420AD0FEF7ADFFD6
:102760000D4A756D7020746F6F206661720A00F0FB
:1027700068BE5B10FF210B40134330001E0000B504
:102780004FF0005213681060FFF7B4FC136000BDF7
:10279000CA2700000000056A756D702C310040CF1B
:1027A000300040CF0B1A043B8E491940002902D05B
:1027B0008D4A9142D2D15B1040F2FF72134053F424
:1027C000604347F8046D1E00D9E7E22700000000CF
:1027D00004686572650047F8046D4FF0005636686E
:1027E0007047DE28000000000D666C61736876613A
:1027F000722D6865726547F8046D7C4E36687047C7
:1028000000B547F8046D42F60066FFF773FC47F821
:10281000046D4CF64076FFF76DFC00BDDBE700B5BC
:1028200000F03AF839683E600E4647F8046D4DF204
:102830000016FFF784FF00BD00B500F02DF83968E1
:102840003E600E4647F8046D4DF20076FFF777FFC5
:1028500000BD00B5FFF7D4FF00F01EF839683E60F8
:102860000E4647F8046D4DF20006FFF768FF00BD05
:1028700000B500F011F839683E600E46FFF78EFF94
:1028800000BD00B5FFF7BCFFFFF7A5FF47F8046DDB
:102890000226FFF79CFC00BD00B5FFF79CFF47F840
:1028A000046D0226FFF793FC00BD00B5FFF793FF10
:1028B000FFF774FF00BD00B5FFF78DFF47F8046D0B
:1028C0004DF20006FFF73BFF00BD00B5FFF783FFA9
:1028D00047F8046D4DF20016FFF731FF00BD1A29CD
:1028E00000003000047468656E00052E01D140CFF1
:1028F000DBE7022E01D140CFDDE7FEF7DEFE175306
:1029000074727563747572657320646F6E277420BA
:102910006D617463680A00F094BD362900003000D0
:1029200004656C73650000B500F017F8FDF73EFC18
:10293000FFF7DBFF00BD4E29000030000269660092
:1029400000B5FFF79EFF47F8046D022600BD682919
:102950000000300005616865616400B5FFF79CFF09
:1029600047F8046D052600BD82290000300006727C
:1029700065706561740000B500F01FF8FFF7B5FFE2
:1029800000BD9A2900003000057768696C6500B5C4
:10299000FFF7D6FFFDF70AFC00BDAE2900003000AE
:1029A00005756E74696C012EA7D140CF51E7C2291D
:1029B0000000300005616761696E012E9DD140CF36
:1029C00056E7F0290000300005626567696E00B5C2
:1029D000FFF724FF47F8046D012600BD50010000F9
:1029E0000400002001F8FFFF00F8FFFF2400002092
:1029F000002A00002000016B47F8046D029E70471A
:102A0000102A00002000016A47F8046D009E7047FC
:102A1000202A00002000016947F8046D2600704755
:102A20005E2A00003000056C6561766500B5D94806
:102A300001683B00043F1A68043B1A6008338B426C
:102A4000F9D103B4FFF728FF03BC330040CF0439AA
:102A50000B60016004390A6801320A6000BD702A07
:102A60000000200006756E6C6F6F700030BC704700
:102A7000A82A00003000052B6C6F6F70032E00D069
:102A80003BE740CF00B547F8046DC34EFFF742F96E
:102A9000FFF7D2FE1AE014F10044641BA41940CFE2
:102AA0002C44A4F100447047EA2A00003000046C72
:102AB0006F6F7000032E00D01FE740CF00B547F8BE
:102AC000046DB64EFFF726F9FFF7A9FE00F019F9DD
:102AD000B048310040CF016047F8046DB04EFFF7B9
:102AE00019F900BD0134AC427047322B0000780068
:102AF00002646F0000B547F8046DAA4EFFF70AF9AB
:102B0000A448016847F8046D0E0047F8046D0026DC
:102B10000760FFF783FE47F8046D032600BD00B58C
:102B200000F02FF8ECE730B4340040CF350040CF50
:102B30007047CC2B00007800033F646F00B547F866
:102B4000046D984EFFF7E6F847F8046D44F2AC26A2
:102B5000FFF7D0FA8F48016847F8046D0E00FFF7C1
:102B60009BFE013647F8046D01268A480760FFF78F
:102B700055FE47F8046D032600BD00B500F001F8CE
:102B8000E2E700B547F8046D4BF23046FFF7B2FAC2
:102B900047F8046D0426FEF789FF013B08D047F88B
:102BA000046D0526FEF782FF013B00F023FC00BD0B
:102BB00047F8046D3526FFF79DFA47F8046D4CF68B
:102BC0004076FFF797FA00F015FC00BDE62B0000F9
:102BD000300004636173650047F8046D002647F810
:102BE000046D08267047FC2B00003000033F6F6621
:102BF0006D4809E0013EB64140CF7047A22C00006D
:102C00007800026F66006948082E00D075E640CF54
:102C100000B547F8046D0600FFF77CF8FFF73CFEAF
:102C200039683E600E46013647F8046D092647F8BC
:102C3000046D4CF64076FFF75DFA00BD00B530003C
:102C400040CF013B01B400F0D5FB01BC082E00D001
:102C500053E640CF47F8046D0600FF213140B142F2
:102C600005D14FF438510E43FFF744FAD6E7FEF78B
:102C700069FE002E40CF04D04D480643FFF764FAAA
:102C8000CCE747F8046D0026FEF710FF47F8046D07
:102C900044F2B026FFF72EFAC0E7300040CFB04232
:102CA0007047D82C0000300005656E646F66092EF1
:102CB00000D022E640CF00B540B440CFFFF7ECFD96
:102CC00039683E600E46FFF700FE47F8046D40BCD1
:102CD00047F8046D082600BD2A2D00003000076566
:102CE0006E6463617365082E00D006E640CF00B5C0
:102CF00047F8046D4CF64076FFF7FCF900F001F858
:102D000000BD00B5300040CF00280DD003B4012134
:102D10003140002903D0013EFFF7CDFD01E0FFF770
:102D2000C4FD03BC0138EFE700BD3E2D00000000EC
:102D300005746F6B656E47F8046D202605E0B82DAD
:102D40000000000005706172736510B5FEF7FFFBAF
:102D5000310040CF300040CF164A12688418202E30
:102D600007D191420FD0835CB34202D10132841863
:102D7000F7E7914207D0835C0132B342F9D186185C
:102D8000361B013E01E08618361B043F3C600948B3
:102D9000026010BD0C000020962A0000E42A00000A
:102DA0006C2A0000262B0000F42B00009A2C000057
:102DB000000FB6F1E44F0020F62D0000000005647E
:102DC00069676974CF4B1B68303E0BD30A2E0BD357
:102DD000073E0A2E06D3242E06D3203E0A2E01D308
:102DE000242E01D3002670479E42FBD247F8046D83
:102DF0000026F6437047002F00000000066E756D38
:102E0000626572003FB5310040CF701E012601227D
:102E100004B4BC4B1B680024002500293CD00130C1
:102E2000013902782D2A04D101B00022D24304B422
:102E3000F3E7232A01D10A23EFE7242A01D1102343
:102E4000EBE7252A01D10223E7E72E2A01D102264A
:102E5000E3E72C2A36D047F8046D1600FFF7B4FFDD
:102E6000002E40CF2BD047F8046D260047F8046DA4
:102E70002E0047F8046D1E0047F8046D00260FB4BD
:102E8000FDF792FA0FBC350040CF340040CF00224E
:102E9000A419554140CFC0E704BC002A04D5002244
:102EA000E443ED430134554133002600012B02D0A9
:102EB00047F8046D2E0047F8046D1E003FBD01B0B9
:102EC00000263FBD2500002402260029E4D0425CF4
:102ED00001392E2AF9D047F8046D1600FFF774FF68
:102EE000002E40CFEBD0043F3C6047F8046D1E003D
:102EF0000FB4FDF708FB0FBC340040CF40CFE4E730
:102F0000222F00000000062E6469676974000A2EF3
:102F100001D230367047242E01D23736704723262F
:102F20007047582F0000000004686F6C6400330085
:102F300040CF754801783F290DD20131017040180A
:102F4000012907D0013802780130027001380139B7
:102F50000129F7D103707047782F00000000056841
:102F60006F6C643C330040CF674801783F2902D240
:102F70000131017043547047902F0000000004732A
:102F800069676E00002E01D440CF70472D26CEE732
:102F9000A42F0000000002233E005B4806780130A9
:102FA00038607047BC2F000000000366235310B543
:102FB000202400F008F8013CFBD110BDDE2F0000FA
:102FC00000000266230000B547F8046D4D4E3668D8
:102FD000FDF7D6F9FFF79BFFFFF7C4FF00BDFA2FFF
:102FE000000000000223530000B500F00AF8002E94
:102FF000FBD138680028F8D100BD26300000000061
:10300000012300B547F8046D3E4E366847F8046D5D
:103010000026FDF797FAFDF7C9F840CFFFF777FFD5
:10302000FFF785FF00BD383000000000023C2300A0
:1030300035480021017070474A30000000000266E8
:103040002E0047F8046D202604E0983000000000B0
:1030500003662E6E00B510B4340040CFFDF701FCBE
:10306000FDF757F947F8046D0026FFF7E1FFFFF77A
:10307000BBFF40CF2C26FFF775FF002C03D0FFF7D6
:10308000A2FF013CFBD110BC40CFFFF77BFF47F80C
:10309000046D47F8046D1CE0AE30000000000375BD
:1030A000642E00B5FFF7C4FFFFF79EFF11E0E0308C
:1030B0000000000002642E0000B5FDF7D2FBFDF712
:1030C00028F9FFF7B5FFFFF78FFFFDF7D4FBFFF7F8
:1030D00059FFFFF762FFFEF74CFBFEF79DFA00BDBC
:1030E000F2300000000002752E0047F8046D002643
:1030F000D7E70C3100000000012E47F8046DF617E9
:10310000DAE70000FC4F00202800002054310000C6
:103110000000086576616C756174650000B5FEF7A6
:1031200016FA01CF01B440B440CFD548016802B4CB
:1031300000210160FEF7FEF900F014F8D04802BC4F
:10314000016047F8046D40BC01BC043F3860FEF7E5
:10315000F1F900BD1A340000000009696E7465724F
:103160007072657430B5C74887420BD9FEF7A5FA6F
:1031700010537461636B20756E646572666C6F7753
:103180000A005EE1C04887420AD2FEF796FA0F5362
:103190007461636B206F766572666C6F770A50E1BD
:1031A000BA4C2568002D01D13D002560FFF7C3FD15
:1031B000002E02D1043740CF30BD386847F8046D87
:1031C000043F3860FFF778FA310040CF320040CF3B
:1031D000002A13D138683100FFF714FE320040CFC7
:1031E000002AC0D1FEF7C9FAFEF767FA0C206E6F0D
:1031F0007420666F756E642E0A0022E1A44B1B6872
:10320000002B1DD10025256030230B40302B0ED123
:10321000FEF7AFFAFEF751FA1220697320636F6D63
:1032200070696C652D6F6E6C792E0A0009E10437A8
:1032300040CF47F8046D1600FEF70AFEFFF793FF34
:10324000043740CF802008400ED1EB1B9B08402064
:1032500008400FD00820084002D0002B00D01DE00D
:103260000F200840834205D347F8046D1600FEF78F
:10327000EFFD78E700F0BEF847F8046D1600102265
:103280000A4002D0FEF7E4FD6DE720220A4002D09A
:10329000FEF740FD67E7FEF766FC64E707200140A4
:1032A0001000FEF74EFD01291FD1012BDCD1FF21BB
:1032B0003140B14204D140880643FEF71BFF52E77C
:1032C000FEF740FB002E40CF04D040680643FEF7D7
:1032D0003BFF48E747F8046D0026FEF7E7FB47F899
:1032E000046D0688FEF706FF3DE7022902D1012B97
:1032F000BAD1EFE7032927D1012BB5D1FF21314006
:10330000B1420BD14FF478510E43FEF7F3FE043275
:1033100047F8046D1600FEF7FDFC24E7FEF712FBEC
:10332000002E40CF04D05B490E43FEF70DFFEEE7C1
:1033300047F8046D0026FEF7B9FB023247F8046D2A
:103340001600FEF7E7FC0EE7042918D1012B8BD1FC
:10335000330040CF002B00D105E71F221A409A42CC
:1033600005D047F8046D4688FEF7C4FEFBE647F833
:10337000046D06889B011E43FEF7BCFEF3E605299B
:1033800024D1012B10D147F8046D0026FEF78EFBE7
:1033900047F8046D0600FEF7BDFC47F8046D4CF6D7
:1033A0004076FEF7A7FEDEE647F8046D0026FEF73E
:1033B0007DFB47F8046D0126FEF778FBFEF7C1FCA4
:1033C00047F8046D0600FEF7A5FCCCE606290ED1F1
:1033D000012B7FF449AFFEF7B5FA002E40CF3FF442
:1033E00079AFD0F802000643FEF7AEFEBBE601302F
:1033F0008047B8E600B5002B0CD0013B47F8046DC0
:103400001E0057F82660FEF7E3FB002BF5D1043DC4
:103410002F0040CF0025256000BD3634000081001C
:1034200009686F6F6B2D7175697447F8046D1A4EDA
:1034300070476A340000AC34000000000471756904
:103440007400DFF858D00F4F15480A21016010486A
:10345000002101600D4801600948016011480160C8
:10346000114941600C4800688746FEF77EF8FFF777
:1034700079FEFEF722F905206F6B2E0AF5E70000B2
:10348000E44F00203002002030010020080000201E
:10349000D84F00200006B6F1D44F002030030020A2
:1034A000FC4F0020DC4F002068000020C6340000E4
:1034B00000000565696E743F47F8046DEFF31086F0
:1034C000013EB6417047D634000020000465696EA5
:1034D000740062B67047E634000020000464696E30
:1034E000740072B67047FC340000200004697073E9
:1034F000720047F8046DEFF3058670470835000049
:103500000000036E6F7070474A35000000000975B7
:103510006E68616E646C656400B5FEF7CEF8145594
:103520006E68616E646C656420496E746572727554
:103530007074200047F8046DEFF30586FEF730F94C
:10354000FEF7BBF802210A0000BD60350000000054
:10355000057265736574DFF88808DFF88818016004
:103560008C35000081000B6972712D737973746959
:10357000636B47F8046DDFF870687047183500001A
:1035800044F6D070C2F2000000688746B6350000ED
:103590008100096972712D6661756C7447F8046D5C
:1035A000DFF8486870471835000044F6CC70C2F266
:1035B000000000688746E635000081000E697271E0
:1035C0002D636F6C6C656374696F6E0047F8046DF2
:1035D000DFF81C6870471835000044F6C870C2F266
:1035E0000000006887460E3600008100076972718E
:1035F0002D72746347F8046DDFF8F867704718356B
:10360000000044F6C470C2F20000006887463836F5
:1036100000008100096972712D657874693047F87E
:10362000046DDFF8D46770471835000044F6C070A9
:10363000C2F2000000688746623600008100096916
:1036400072712D657874693147F8046DDFF8AC67E5
:1036500070471835000044F6BC70C2F200000068E4
:1036600087468C3600008100096972712D65787477
:10367000693247F8046DDFF8886770471835000035
:1036800044F6B870C2F2000000688746B636000003
:103690008100096972712D657874693347F8046D8A
:1036A000DFF8606770471835000044F6B470C2F266
:1036B000000000688746E0360000810009697271E9
:1036C0002D657874693447F8046DDFF83C677047FE
:1036D0001835000044F6B070C2F20000006887465A
:1036E0000C37000081000A6972712D646D61315FD1
:1036F000310047F8046DDFF8146770471835000093
:1037000044F6AC70C2F2000000688746383700000B
:1037100081000A6972712D646D61315F320047F872
:10372000046DDFF8EC6670471835000044F6A870A9
:10373000C2F20000006887466437000081000A6911
:1037400072712D646D61315F330047F8046DDFF8ED
:10375000C46670471835000044F6A470C2F2000039
:10376000006887469037000081000A6972712D64F5
:103770006D61315F340047F8046DDFF89C66704777
:103780001835000044F6A070C2F2000000688746B9
:10379000BC37000081000A6972712D646D61315F70
:1037A000350047F8046DDFF874667047183500007F
:1037B00044F69C70C2F2000000688746E8370000BB
:1037C00081000A6972712D646D61315F360047F8BE
:1037D000046DDFF84C6670471835000044F69870A9
:1037E000C2F20000006887461438000081000A69B0
:1037F00072712D646D61315F370047F8046DDFF839
:10380000246670471835000044F69470C2F2000038
:10381000006887463C3800008100076972712D619D
:10382000646347F8046DDFF80066704718350000E0
:1038300044F69070C2F200000068874666380000C7
:103840008100096972712D657874693547F8046DD6
:10385000DFF8D86570471835000044F68C70C2F266
:103860000000006887469238000081000B69727181
:103870002D74696D3162726B47F8046DDFF8B065C5
:1038800070471835000044F68870C2F200000068E6
:103890008746BE38000081000A6972712D74696D17
:1038A0003175700047F8046DDFF88865704718358A
:1038B000000044F68470C2F2000000688746EA38CF
:1038C000000081000B6972712D74696D317472672B
:1038D00047F8046DDFF8606570471835000044F65E
:1038E0008070C2F20000006887461639000081002F
:1038F0000A6972712D74696D3163630047F8046D54
:10390000DFF8386570471835000044F67C70C2F265
:103910000000006887464039000081000869727124
:103920002D74696D320047F8046DDFF81465704737
:103930001835000044F67870C2F20000006887462F
:103940006A3900008100086972712D74696D330055
:1039500047F8046DDFF8EC6470471835000044F652
:103960007470C2F20000006887469439000081003C
:10397000086972712D74696D340047F8046DDFF8C1
:10398000C86470471835000044F67070C2F2000039
:1039900000688746C039000081000A6972712D698C
:1039A00032633165760047F8046DDFF8A064704734
:1039B0001835000044F66C70C2F2000000688746BB
:1039C000EC39000081000A6972712D69326331653A
:1039D000720047F8046DDFF878647047183500000E
:1039E00044F66870C2F2000000688746183A00008A
:1039F00081000A6972712D6932633265760047F879
:103A0000046DDFF8506470471835000044F66470A8
:103A1000C2F2000000688746443A000081000A694B
:103A200072712D6932633265720047F8046DDFF8F8
:103A3000286470471835000044F66070C2F2000038
:103A4000006887466E3A00008100086972712D7324
:103A50007069310047F8046DDFF80064704718356D
:103A6000000044F65C70C2F2000000688746963A97
:103A700000008100086972712D737069320047F887
:103A8000046DF74E70471835000044F65870C2F2C6
:103A9000000000688746C03A000081000A69727120
:103AA0002D7573617274310047F8046DED4E7047E7
:103AB0001835000044F65470C2F2000000688746D2
:103AC000EA3A000081000A6972712D75736172749F
:103AD000320047F8046DE44E70471835000044F694
:103AE0005070C2F2000000688746143B000081005D
:103AF0000A6972712D7573617274330047F8046D31
:103B0000DA4E70471835000044F64C70C2F20000DF
:103B1000006887463E3B000081000A6972712D658E
:103B200078746931300047F8046DD14E704718350C
:103B3000000044F64870C2F20000006887466A3B05
:103B4000000081000C6972712D727463616C617286
:103B50006D0047F8046DC74E70471835000044F6F5
:103B60004470C2F2000000688746943B0000810068
:103B70000B6972712D757362776B757047F8046D00
:103B8000BD4E70471835000044F64070C2F2000088
:103B900000688746BC3B00008100086972712D7483
:103BA000696D350047F8046DB44E70471835000054
:103BB00044F63C70C2F2000000688746E43B000017
:103BC0008100086972712D737069330047F8046DC4
:103BD000AB4E70471835000044F63870C2F2000052
:103BE000006887460C3C00008100096972712D75E0
:103BF0006172743447F8046DA24E704718350000A6
:103C000044F63470C2F2000000688746343C00007D
:103C10008100096972712D756172743547F8046D00
:103C2000994E70471835000044F63070C2F200001B
:103C3000006887465C3C00008100086972712D7441
:103C4000696D360047F8046D904E704718350000D6
:103C500044F62C70C2F2000000688746843C0000E5
:103C60008100086972712D74696D370047F8046D21
:103C7000874E70471835000044F62870C2F20000E5
:103C800000688746AC3C00008100096972712D759F
:103C90007362667347F8046D7E4E704718350000F6
:103CA00044F62470C2F2000000688746004000001D
:103CB000FFFF182D2D2D20466C6173682044696329
:103CC00074696F6E617279202D2D2D00FDF78DFBCB
:103CD00071488546714F2A264FF000506E490160A9
:103CE0006F487049016047F8046D6E4E6E4DB188A3
:103CF0004FF6FF73994225D04FF480730B400AD0E2
:103D0000B01DFEF7CAFCFEF71CF8038840880004CB
:103D10000343ED1A16E080230B4013D00F23194004
:103D200089006D1AB01DFEF7B8FCFEF70AF847F8D7
:103D3000046D060047F8046D2E0047F8046D0E0070
:103D4000FCF73EFFFEF786FC300040CFCFD057484F
:103D5000066040CF564805604FF480304FF48041F4
:103D60004FF6FF72884204D0023803889342F9D09C
:103D7000023050490860FDF7A0FC374D6563726959
:103D800073702D5374656C6C6172697320322E33BD
:103D90002E3620666F722053544D33324631303305
:103DA000206279204D61747468696173204B6F6380
:103DB000680A41480021016047F8046D3F4E47F80A
:103DC000046D0426FEF778FC40CF002E03D0FEF7EA
:103DD0003FF8FFF747BB40CFFFF733BB696E69740D
:103DE0000CED00E00400FA05D04F0020CC4F00207D
:103DF000C84F0020C44F0020C04F0020BC4F0020FF
:103E0000B84F0020B44F0020B04F0020AC4F00202E
:103E1000A84F0020A44F0020A04F00209C4F00205E
:103E2000984F0020944F0020904F00208C4F00208E
:103E3000884F0020844F0020804F00207C4F0020BE
:103E4000784F0020744F0020704F00206C4F0020EE
:103E5000684F0020644F0020604F00205C4F00201E
:103E6000584F0020544F0020504F00204C4F00204E
:103E7000484F0020444F0020404F00203C4F00207E
:103E8000384F0020344F0020304F00202C4F0020AE
:103E9000284F0020244F0020300300203002002053
:103EA0000400002050010000005000201C000020F1
:103EB000240000201800002008000020DC3D000045
:10400000444000000000066368697069640000B500
:1040100047F8046D4FF2E876C1F6FF76366847F848
:10402000046D4FF2EC76C1F6FF76366847F8046D02
:104030004FF2F076C1F6FF76366847F8046D032636
:1040400000BD00006C400000000004687769640057
:1040500000B5FFF7DCFF30B40124350040CF01CFBD
:1040600046400134AC42FAD130BC00BD9040000063
:10407000000008666C6173682D6B620000B547F83C
:10408000046D4FF2E076C1F6FF76368800BD000081
:10409000D440000000000E666C6173682D7061678B
:1040A0006573697A650000B540CFFFF7E7FF47F811
:1040B000046D8026FCF7FEFC002E40CF04D047F8AC
:1040C000046D5FF4806603E047F8046D5FF40066FA
:1040D00000BD0000F440000041000362697400B5B7
:1040E00047F8046D012639683E600E0001CFB040EC
:1040F000060000BD104100004000044146494F0049
:1041000047F8046D40F20006C4F201067047000053
:10411000304100004000094146494F2D4D41505269
:1041200047F8046D40F20406C4F20106704700002F
:104130004841000040000352434347F8046D41F2F8
:104140000006C4F2020670476441000040000652B7
:1041500043432D43520047F8046D41F20006C4F278
:1041600002067047844100004000085243432D433B
:104170004647520047F8046D41F20406C4F20206B5
:1041800070470000A441000040000B5243432D4102
:10419000504232454E5247F8046D41F21806C4F2BF
:1041A00002067047C441000040000B5243432D41BA
:1041B000504231454E5247F8046D41F21C06C4F29C
:1041C00002067047E0410000400005464C4153485C
:1041D00047F8046D42F20006C4F202067047000080
:1041E00000420000400009464C4153482D414352D3
:1041F00047F8046D42F20006C4F202067047000060
:104200009442000000000537324D487A00B542F272
:104210000000C4F202001221016041F20000C4F269
:1042200002005FF4803102680A43026047F8046DBF
:1042300041F20006C4F2020636685FF40030064020
:1042400018BF4FF0FF36002E40CFEFD041F20400F0
:10425000C4F2020048F20241C0F21D01016041F2C5
:104260000000C4F202005FF0807102680A4302603D
:1042700047F8046D41F20006C4F2020636685FF0AA
:104280000070064018BF4FF0FF36002E40CFEFD031
:1042900000BD0000BC42000081000C632C636F6C09
:1042A0006C656374696F6E0047F8046D44F62076A0
:1042B000C2F2000670470000000000001843000032
:1042C000000002632C0000B547F8046D44F6207628
:1042D000C2F200063668002E01D047F8046D002EA9
:1042E00040CF10D016F0FF0639683E600E0036024F
:1042F00001CF0643FDF7FEFE44F62070C2F2000037
:104300000021016007E056F4807644F62070C2F286
:104310000000066040CF00BD484300000000066377
:10432000616C69676E0000B547F8046D44F620764D
:10433000C2F200063668002E40CF04D047F8046D64
:104340000026FFF7C0FF00BDB843000000000B636C
:104350006F726E657273746F6E6500B5FDF788FCE1
:10436000FEF739FA47F8046DFFF79DFE013E01CFD5
:104370000640002E40CF05D047F8046D0026FDF71B
:10438000B9FEEDE741F63740804747F8046DBEF1CE
:10439000010647F8046D47F8046DFFF784FE013EFF
:1043A00001CF0640002E40CF01D00236F1E7FDF7E5
:1043B0001FF9FCF77CFE00BDDC430000000009692A
:1043C0006E69742D72696E6700B5013E39683E6092
:1043D0000E0003CF30600E0000BD0000FC43000063
:1043E000000004632B2B400000B547F8046D3678BD
:1043F00039683E600E00013600BD000054440000E4
:1044000000000972696E672D7374657000B547F816
:10441000046D7E6801CF361847F8046D367840B4D5
:1044200040CF47F8046D3678013639683E600E009B
:1044300003CF30700E0047F8046D367847F8046DEE
:1044400040BC01CF064039683E600E00043601CF03
:10445000361800BD7C44000000000572696E6723B9
:1044600000B5FFF7C1FFFFF7BFFFFFF7BDFF40CF6C
:1044700001CF861B01CF064000BD0000A044000014
:1044800000000572696E673F00B547F8046DFFF7DD
:10449000E7FF39683E600E003678FCF714FB00BD7C
:1044A000C04400000000053E72696E6700B547F821
:1044B000046D0126FFF7AAFF03CF30700E0000BD88
:1044C000DC44000000000572696E673E00B547F8E5
:1044D000046D0226FFF79AFF367800BD0C450000F8
:1044E0000000077573623A646576360000B541F6E0
:1044F0001140C0F20000804712010002020000409B
:104500008304405700020102030100006C450000D3
:104510000000087573623A636F6E660000B541F67D
:104520001140C0F20000804709024300020100C0B0
:1045300032090400000102020100052400100105F7
:10454000240100010424020205240600010705825B
:10455000030800FF09040100020A00000007050328
:104560000240000007058102400000009045000065
:1045700000000A7573623A6C616E67696400360008
:1045800000B541F61140C0F2000080470403090461
:10459000D845000000000A7573623A76656E646F54
:1045A0007200360000B541F61140C0F200008047AD
:1045B00028034D00650063007200690073007000FD
:1045C00020002800530054004D0033003200460004
:1045D00031003000780029001C46000000000B75F7
:1045E00073623A70726F64756374360000B541F699
:1045F0001140C0F200008047240346006F007200A3
:1046000074006800200053006500720069006100BA
:104610006C00200050006F007200740040460000E3
:104620000000087573623A6C696E650000B541F66A
:104630001140C0F20000804700C2010001000800E4
:104640007C4600000000087573623A696E69740068
:1046500000B541F61140C0F2000080478000000024
:1046600040000084C0000000000000004001000085
:1046700000000000000000000001008494460000DB
:1046800040000355534247F8046D45F60046C4F216
:1046900000067047B44600004000085553422D45BF
:1046A0005030520047F8046D45F60046C4F200064B
:1046B00070470000D44600004000085553422D4387
:1046C0004E54520047F8046D45F64046C4F20006C9
:1046D00070470000F44600004000085553422D4941
:1046E0005354520047F8046D45F64446C4F20006A0
:1046F00070470000104700004000075553422D4608
:104700004E5247F8046D45F64846C4F2000670471D
:10471000304700004000095553422D444144445263
:1047200047F8046D45F64C46C4F200067047000099
:104730005047000040000A5553422D425441424C1C
:10474000450047F8046D45F65046C4F20006704730
:104750006C4700004000065553424D454D0047F858
:10476000046D46F20006C4F200067047A047000040
:104770000000077573622D706D6100B547F8046D18
:1047800016F00106764239683E600E00760001CFD1
:10479000361846F20000C4F20000361800BD0000D2
:1047A000BC4700000000087573622D706D61400009
:1047B00000B5FFF7E2FF368800BD0000DC470000CF
:1047C0000000087573622D706D61210000B5FFF760
:1047D000D4FF03CF30800E0000BD0000FC47000076
:1047E00000000765702D6164647200B5B60045F67F
:1047F0000040C4F20000361800BD0000244800004C
:1048000000000665702D7265670000B57600396896
:104810003E600E000820464301CF3618FFF7ADFF7B
:1048200000BD0000804800000000077278737461CA
:10483000742100B539683E600E00FFF7D6FF40B422
:1048400040CF360347F8046D009E368801CF083FFD
:104850007E60386001CF464016F4405639683E60AD
:104860000E0040F60F70064048F28000064301CF6C
:10487000064347F8046D40BC03CF30800E0000BDF6
:10488000DC4800000000077478737461742100B57F
:1048900039683E600E00FFF7A8FF40B440CF3601F4
:1048A00047F8046D009E368801CF083F7E6038606F
:1048B00001CF464016F0300639683E600E0040F6E3
:1048C0000F70064048F28000064301CF064347F8C8
:1048D000046D40BC03CF30800E0000BD1C490000B9
:1048E00000000C65702D72657365742D727823005D
:1048F00000B547F8046D5FF4044647F8046D7E6820
:1049000047F8046D0326FFF780FF03CF30800E00C9
:1049100047F8046D0326FFF78CFF00BD50490000E7
:104920000000077278636C65617200B5FFF75DFF88
:1049300047F8046D368847F6FF70064048F68F70DA
:10494000064039683E600E0003CF30800E0000BD87
:10495000844900000000077478636C65617200B5DB
:10496000FFF743FF47F8046D36884FF67F70064027
:1049700048F68F70064039683E600E0003CF3080E5
:104980000E0000BDAC4900008200087573622D70F6
:10499000656E640047F8046D44F61876C2F20006AE
:1049A000704700000000000000000000D049000037
:1049B00040010A7573622D73657269616C0047F876
:1049C000046D44F60476C2F200067047140000003D
:1049D000784A000000000A7365742D73657269617E
:1049E0006C0000B547F8046D44F6FC76C2F2000690
:1049F0003668FCF728FCFFF72BFB47F8046D002610
:104A0000FEF716FB30B400240825FEF7FAFA01344D
:104A1000AC42FAD130BCFEF7C0FA30B40024350005
:104A200040CF47F8046D367847F8046D260001360C
:104A3000760044F60470C2F20000361803CF3080CE
:104A40000E0001360134AC42EBD130BC40CF44F60D
:104A5000FC70C2F20000066040CF44F60470C2F25F
:104A6000000040F21231018047F8046D44F60476EC
:104A7000C2F2000600BD0000A04A00000000097359
:104A8000656E642D6461746100B547F8046D44F689
:104A90001876C2F2000606CF3160726040CF00BDCA
:104AA000A44B000000000973656E642D6E65787478
:104AB00000B547F8046D44F61876C2F20006043FCC
:104AC00070683860366847F8046D402601CFB04200
:104AD00000DC060047F8046D4626FFF769FE01CFAB
:104AE000B04200DC060040B440CF47F8046D009EA1
:104AF00001203040361830B40024350040CFAC429D
:104B00001DD047F8046D47F8046D260001CF361814
:104B1000368847F8046D802647F8046D260001CFDB
:104B20003618FFF753FE47F8046D022614F10044CF
:104B3000641BA41940CF2C44A4F10044E1D730BC3D
:104B400040CF47F8046D009E47F8046D0226FFF73A
:104B50003DFE47F8046D002647F8046D0326FFF775
:104B600096FE47F8046D44F61876C2F20006043F3C
:104B700070683860366847F8046D40BC47F8046DCB
:104B8000764207CF12184E41043F3A6047F8046D51
:104B900044F61876C2F2000606CF3160726040CF4C
:104BA00000BD0000684C000000000973656E642DB4
:104BB0006465736300B547F8046D4226FFF7F8FD9E
:104BC000B6F5807F06D140CFFFF78FFC47F8046D24
:104BD000122645E0B6F5007F06D140CFFFF79EFCD8
:104BE00047F8046D43263BE0B6F5407F06D140CF41
:104BF000FFF7C5FC47F8046D042631E040F20130B0
:104C0000B04206D140CFFFF7CCFC47F8046D282610
:104C100026E040F20230B04206D140CFFFF7E5FC7B
:104C200047F8046D24261BE040F20330B04206D161
:104C300040CFFFF7D6FE47F8046D122610E047F884
:104C4000046D5FF0FF36013EB64140CF07D140CF43
:104C500047F8046D002647F8046D002600E040CFB9
:104C6000FFF712FF00BD0000584D0000000009755D
:104C700073622D726573657400B530B400245FF4FF
:104C8000807547F8046D002647F8046D260076000D
:104C9000FFF79CFD0134AC42F3D130BC45F65040E7
:104CA000C4F2000000210180FFF7D2FC30B40024E0
:104CB000402547F8046D368847F8046D260046F213
:104CC0000000C4F20000361803CF30800E00023618
:104CD00047F8046D042614F10044641BA41940CF66
:104CE0002C44A4F10044E4D730BC40CF47F8046D15
:104CF00043F2102647F8046D0026FFF776FD03CF38
:104D000030800E0047F8046D212647F8046D012617
:104D1000FFF76BFD03CF30800E0047F8046D40F2C3
:104D2000226647F8046D0226FFF75FFD03CF30804F
:104D30000E0047F8046D43F2030647F8046D03269E
:104D4000FFF753FD03CF30800E0045F64C40C4F210
:104D500000008021018000BD744D00000000047A35
:104D600065726F0000B541F61140C0F20000804747
:104D700000000000984D000040010B7573622D6922
:104D80006E2D72696E6747F8046D44F68066C2F254
:104D90000006704784000000C04D000040010C7503
:104DA00073622D6F75742D72696E670047F8046D1C
:104DB00044F63C66C2F20006704744000000000062
:104DC000244E000000000865702D73657475700036
:104DD00000B547F8046DFFF7A8FD47F8046D4126BC
:104DE000FFF7CBFC3678002E08D140CFFFF7BAFF93
:104DF00047F8046D0226FFF747FE0EE0062E03D1AA
:104E000040CFFFF7D7FE08E047F8046D002647F8CB
:104E1000046D0026FFF738FE40CFFFF769FDFFF76E
:104E200047FE00BD444E000081000774782E706577
:104E30006E6447F8046D44F63866C2F200067047A7
:104E400000000000684E00008100097573622E7436
:104E500069636B7347F8046D44F63466C2F200066A
:104E60007047000000000000B04E000000000A750E
:104E700073622D706D612D63210000B547F8046DDC
:104E800016F00106002E40CF0FD0013E47F8046D0A
:104E9000FFF78EFC03CF083F78603E600E003602BD
:104EA00001CF064339683E600E00FFF78FFC00BD5E
:104EB000504F00000000087573622D66696C6C002D
:104EC00000B547F8046D44F63C66C2F20006FFF7F1
:104ED000C7FA002E01D047F8046D002E40CF36D01F
:104EE00047F8046D44F63860C2F20000066040CF17
:104EF00047F8046D30B40024350040CF47F8046D06
:104F000044F63C66C2F20006FFF7E0FA47F8046D8B
:104F1000C02647F8046D260001CF3618FFF7ADFF15
:104F20000134AC42EAD130BC47F8046D012647F8A1
:104F3000046D0126FFF769FC03CF30800E0047F8AF
:104F4000046D012647F8046D0326FFF7A0FC00BDA1
:104F5000E44F000000000665702D6F75740000B509
:104F600047F8046D002E40CF35D047F8046D44F665
:104F70008066C2F20006FFF773FA47F8046D3C261C
:104F8000FBF7AAFD002E40CF01D040CF00BD47F86F
:104F9000046D47F8046D0326FFF737FC368816F0DA
:104FA0007F0630B40024350040CFAC4212D047F821
:104FB000046D260016F58076FFF7DFFB367847F89C
:104FC000046D44F68066C2F20006FFF76FFA013402
:104FD000AC42ECD130BC47F8046DFFF7A6FCFFF7FC
:104FE00087FC00BD5850000000000565702D696EFB
:104FF00000B547F8046D002E40CF0ED044F6346063
:10500000C2F200000021016044F63860C2F20000E4
:1050100000210160FFF754FF1AE047F8046D4126B4
:10502000FFF7ABFB3678053E013EB641002E40CF80
:105030000CD047F8046D4226FFF7BAFB56F0800605
:1050400045F64C40C4F20000068040CFFFF730FD2B
:10505000FFF785FC00BD0000A850000000000775A8
:1050600073622D63747200B547F8046D16F007067D
:1050700039683E600E0016F01006002E40CF0FD0AB
:1050800047F8046DFFF7B1FB368816F40066002E72
:1050900040CF02D0FFF79CFE01E0FFF760FF01E088
:1050A000FFF7A6FF00BD0000E850000000000975F2
:1050B00073622D666C75736800B547F8046D44F62D
:1050C0008066C2F2000647F8046D8026FFF77CF97F
:1050D00047F8046D44F63C66C2F2000647F8046DDA
:1050E0004026FFF771F900BDE0510000000008758F
:1050F00073622D706F6C6C0000B547F8046D44F658
:105100003866C2F200063668002E40CF1AD044F648
:105110003460C2F20000012102685218026047F8B0
:10512000046D44F63466C2F20006366847F8046D32
:1051300042F2107601CF361AB641002E40CF01D090
:10514000FFF7BAFF47F8046D45F64446C4F200067F
:10515000368847F8046D16F40046002E40CF03D081
:1051600047F8046DFFF77FFF47F8046D16F480667B
:10517000002E40CF08D0FFF77FFD45F64440C4F233
:1051800000004FF6FF31018047F8046D16F4006609
:10519000002E40CF0ED045F64040C4F200000C2156
:1051A00002880A43028045F64440C4F200004FF2F0
:1051B000FF71018016F48056002E40CF0ED045F6C8
:1051C0004040C4F20000082102888A43028045F66C
:1051D0004440C4F200004EF6FF71018000BD0000A3
:1051E000145200000000087573622D6B65793F0052
:1051F00000B5FCF7A1F8FFF77FFF47F8046D44F610
:105200008066C2F20006FFF72BF9013EB641F64375
:1052100000BD0000405200000000077573622D6B56
:10522000657900B5FFF7E4FF002E40CFFAD047F8CC
:10523000046D44F68066C2F20006FFF747F900BD30
:10524000685200000000097573622D656D69743F36
:1052500000B5FFF751FF47F8046D44F63C66C2F213
:105260000006FFF711F900BDB452000000000875F8
:1052700073622D656D69740000B5FFF7E9FF002EBC
:1052800040CFFAD047F8046D44F63C66C2F20006FF
:10529000FFF70CF947F8046D44F63866C2F20006D1
:1052A0003668013EB641002E40CF01D0FFF708FE20
:1052B00000BD0000445300000000067573622D69B4
:1052C0006F0000B541F21C00C4F202005FF400015F
:1052D00002680A43026045F64040C4F20000012122
:1052E000018045F64040C4F2000000210180FFF734
:1052F000E3FE44F6EC70C2F2000045F2F0110160EA
:1053000044F6F470C2F2000045F22221016030B48C
:10531000002444F24025C0F20F05FFF7EDFE0134F2
:10532000AC42FAD130BC44F6F070C2F2000045F253
:105330005021016044F6F870C2F2000045F2782175
:10534000016000BD2C540000000004696E69740007
:1053500000B541F21800C4F202003D210160FEF7E1
:1053600055FFFEF78BFE803E013EB641002E40CF3A
:105370002AD040F60000C4F201000F2102688A43DF
:10538000026040F60000C4F20100022102680A43F4
:10539000026040F60C00C4F20100012102680A43D9
:1053A000026030B4002448F2A065C0F20105013467
:1053B000AC42FCD130BC40F60C00C4F2010001212B
:1053C00002688A4302602DE040F60400C4F2010046
:1053D0005FF4702102688A43026040F60400C4F260
:1053E00001005FF4003102680A43026040F60C00DD
:1053F000C4F201005FF4805102688A43026030B455
:10540000002448F2A065C0F201050134AC42FCD191
:1054100030BC40F60C00C4F201005FF48051026819
:105420000A430260FFF74DFF00BD00000058000076
:1054300000000A6572617365666C6173680036000E
:1054400000B544F28B30C0F200008047000000003D
:10545000000000000000000000000000000000004C
:10546000000000000000000000000000000000003C
:10547000000000000000000000000000000000002C
:10548000000000000000000000000000000000001C
:105800002858000000000B6A7461672D6465696E9A
:10581000697400B540F20400C4F201005FF0007149
:1058200002680A43026000BD6058000000000A736D
:1058300077642D6465696E69740000B547F8046D7E
:1058400040F20406C4F20106366836F0E06656F00F
:10585000806640F20400C4F20100066040CF00BD43
:10586000945800000000046C6973740000B5FBF7E5
:10587000BFFEFCF7D6FE47F8046D0636FBF765FF62
:10588000FBF7CAFEFCF7E6FE002E40CFF3D040CF78
:1058900000BD0000BC58000081000D636C6F736593
:1058A00073742D666F756E6447F8046D44F6306648
:1058B000C2F200067047000000000000CC59000052
:1058C00000000C7472616365696E736964652E0013
:1058D00000B536F0010647F8046DFCF78CFF01CFE8
:1058E000861BB641F643002E40CF01D040CF00BD0D
:1058F00044F63060C2F200000021016040B440CFA5
:10590000FCF78FFE47F8046D47F8046D009E01CF49
:10591000861BB641002E40CF20D047F8046D009E74
:1059200047F8046D7E6801CF861B47F8046D009E22
:1059300047F8046D44F63066C2F20006366801CFBF
:10594000861BFBF7C0F8002E40CF07D047F8046D48
:1059500044F63060C2F20000066040CFFCF77AFEE9
:10596000002E40CFCED040CF47F8046D44F63066CD
:10597000C2F200063668002E01D047F8046D002EF2
:1059800040CF21D047F8046DFBF797FE0228200096
:105990000636FCF77BFE47F8046DFBF701FFFBF7CB
:1059A0008CFE022B200047F8046D009E39683E6093
:1059B0000E0001CF861BFBF7F3FEFBF77EFE0229EC
:1059C00020000636FBF7C1FE01B000BD1C5A0000E6
:1059D00000000263740000B5FBF70AFEFAF779FFD6
:1059E00030B40024350040CF47F8046D2600FBF7A3
:1059F000D7FE47F8046D26000236B6006E443668BE
:105A000047F8046DFBF7CCFEFFF762FFFBF7F0FDF4
:105A10000134AC42E8D130BC00BD00005C5A00004B
:105A200000000663742D6972710000B5FBF7E0FD9C
:105A3000FBF7DEFDFDF770FDFBF7DAFDFBF7CCFEB3
:105A4000FBF7D6FDFBF739FE0A43616C6C7472619B
:105A500063653A00FFF7BFFFFEE700BD905A000004
:105A60000000096E657874746F6B656E00B5FDF7A4
:105A700062F947F8046D013EB641002E40CF06D0D2
:105A8000043740CFFBF7B4FDFBF76FFDEFE700BD38
:105A90006C5B00005000065B656C73655D0000B5D3
:105AA00047F8046D0126FFF7E1FFFAF76AFBFBF701
:105AB0002CFE045B69665D00FBF775FD40B440CFCA
:105AC000FAF75FFBFBF721FE075B69666465665DBD
:105AD000FBF769FD47F8046D40BC01CF064340B4B5
:105AE00040CFFAF74EFBFBF710FE085B69666E6469
:105AF00065665D00FBF757FD47F8046D40BC01CFBC
:105B00000643002E40CF03D0043740CF013622E0B9
:105B1000FAF737FBFBF7F9FD065B656C73655D0013
:105B2000FBF741FD002E40CF09D0043740CF013EA6
:105B300047F8046D002E40CF00D001360BE0FBF794
:105B4000E4FD065B7468656E5D00FBF72CFD002EBE
:105B500040CF00D0013E002E01D047F8046D013E39
:105B6000B641002E40CF9ED000BD0000805B0000FB
:105B70005000065B7468656E5D0000B500BD0000F6
:105B8000A05B00005100045B69665D0000B5013E4A
:105B9000B641002E40CF01D0FFF781FF00BD0000CD
:105BA000CC5B00005000075B69666465665D00B50C
:105BB000FDF7C1F8FCF780FD40CF013EB641002E55
:105BC00040CF01D0FFF76BFF00BD0000FC5B000081
:105BD0005000085B69666E6465665D0000B5FDF7A0
:105BE000AAF8FCF769FD40CF013EB641F643002E0E
:105BF00040CF01D0FFF753FF00BD0000D85C00008C
:105C00000000022E760000B5FAF756FE47F8046D44
:105C1000642601CF861BB641002E40CF46D0FBF74D
:105C20004CFD07537461636B2023FAF745FEFDF7C3
:105C300064FAFBF742FD023C200047F8046D5FF078
:105C4000FF36FAF739FE764230B4340040CF3500E3
:105C500040CFAC4223D047F8046D3E0047F8046DB6
:105C600026000236B60001CF861B366847F8046D61
:105C700047F8046D5FF4803601CF361AB641002E26
:105C800040CF07D047F8046D2426FBF72EFBFBF727
:105C900087FD01E0FDF731FA0134AC42DBD130BCC5
:105CA000FBF70BFD013EFBF7A3FC13E0FBF705FD43
:105CB00011537461636B20756E646572666C6F77E7
:105CC0002028FAF7F9FDFDF718FAFBF7F6FC012991
:105CD000FBF78EFC00BD0000085D000000000375AE
:105CE0002E3400B547F8046D0026FDF7A1F9FDF745
:105CF00088F9FDF786F9FDF784F9FDF782F9FDF7DC
:105D00004CF9FBF736FD00BD305D00000000037567
:105D10002E3200B547F8046D0026FDF789F9FDF72E
:105D200070F9FDF76EF9FDF738F9FBF722FD00BDBC
:105D3000685D0000000003682E3400B547F8046D6C
:105D400044F6FC76C2F200063668FBF77CFA396846
:105D50003E600E00FFF7C5FF44F6FC70C2F2000083
:105D6000066040CF00BD0000A05D00000000036899
:105D70002E3200B547F8046D44F6FC76C2F20006F8
:105D80003668FBF760FA39683E600E00FFF7C1FF26
:105D900044F6FC70C2F20000066040CF00BD000077
:105DA000C45D00008100096865782E656D707479A6
:105DB00047F8046D44F62C66C2F200067047FF00F7
:105DC00000000000D85E0000000007686578647578
:105DD0006D7000B5FBF70CFC30B400244FF6FF7576
:105DE00047F8046D002647F8046D2600103647F882
:105DF000046D260030B4340040CF350040CF47F862
:105E0000046D2600367847F8046D44F62C66C2F21D
:105E10000006366801CF361A013EB641F64301CF7F
:105E200006430134AC42EAD130BC002E40CF3BD017
:105E3000FBF743FC033A313047F8046D2600FFF7C7
:105E40007CFFFBF73AFC0230300047F8046D102667
:105E500047F8046D260001CF361847F8046D260078
:105E6000360A01CF361847F8046D2600103647F879
:105E7000046D260030B4340040CF350040CF47F8E1
:105E8000046D26003678FFF774FF47F8046D26008E
:105E9000367801CF36180134AC42F0D130BC7642AE
:105EA000FFF767FFFBF7A4FB47F8046D102614F11A
:105EB0000044641BA41940CF2C44A4F100448FD7A4
:105EC00030BCFBF7FAFB0B3A303030303030303139
:105ED0004646FBF78DFB00BDDC5F0000000006645A
:105EE000756D7031360000B536F00F0647F8046D59
:105EF000FBF756FC47F8046D0226FBF798FB47F8C2
:105F0000046D103647F8046D7E6830B4340040CF1D
:105F1000350040CF47F8046D26003678FFF729FF9B
:105F2000FBF77AFB47F8046D260016F00F06073ED4
:105F3000013EB641002E40CF04D047F8046D022642
:105F4000FBF775FB0134AC42E4D130BC47F8046D7B
:105F50000226FBF76CFB47F8046D103639683E608B
:105F60000E0030B4340040CF350040CF47F8046D08
:105F70002600367847F8046D202601CF861BB641EF
:105F8000F64347F8046D2600367847F8046D7F26FF
